{
  "_format": "hh-sol-artifact-1",
  "contractName": "coffee",
  "sourceName": "contracts/coffee.sol",
  "abi": [
    {
      "inputs": [],
      "stateMutability": "nonpayable",
      "type": "constructor"
    },
    {
      "inputs": [
        {
          "internalType": "string",
          "name": "name",
          "type": "string"
        },
        {
          "internalType": "string",
          "name": "message",
          "type": "string"
        }
      ],
      "name": "buyCoffee",
      "outputs": [],
      "stateMutability": "payable",
      "type": "function"
    },
    {
      "inputs": [],
      "name": "getBuyers",
      "outputs": [
        {
          "components": [
            {
              "internalType": "string",
              "name": "name",
              "type": "string"
            },
            {
              "internalType": "string",
              "name": "message",
              "type": "string"
            },
            {
              "internalType": "uint256",
              "name": "timestramp",
              "type": "uint256"
            },
            {
              "internalType": "address",
              "name": "from",
              "type": "address"
            }
          ],
          "internalType": "struct coffee.memo[]",
          "name": "",
          "type": "tuple[]"
        }
      ],
      "stateMutability": "view",
      "type": "function"
    }
  ],
  "bytecode": "0x608060405234801561001057600080fd5b50336000806101000a81548173ffffffffffffffffffffffffffffffffffffffff021916908373ffffffffffffffffffffffffffffffffffffffff160217905550610b59806100606000396000f3fe6080604052600436106100295760003560e01c8063204206e11461002e578063f64bfaba1461004a575b600080fd5b610048600480360381019061004391906104e0565b610075565b005b34801561005657600080fd5b5061005f61028e565b60405161006c9190610777565b60405180910390f35b600034116100b8576040517f08c379a00000000000000000000000000000000000000000000000000000000081526004016100af906107f6565b60405180910390fd5b60008054906101000a900473ffffffffffffffffffffffffffffffffffffffff1673ffffffffffffffffffffffffffffffffffffffff166108fc349081150290604051600060405180830381858888f1935050505015801561011e573d6000803e3d6000fd5b506001604051806080016040528086868080601f016020809104026020016040519081016040528093929190818152602001838380828437600081840152601f19601f82011690508083019250505050505050815260200184848080601f016020809104026020016040519081016040528093929190818152602001838380828437600081840152601f19601f8201169050808301925050505050505081526020014281526020013373ffffffffffffffffffffffffffffffffffffffff168152509080600181540180825580915050600190039060005260206000209060040201600090919091909150600082015181600001908161021e9190610a51565b5060208201518160010190816102349190610a51565b506040820151816002015560608201518160030160006101000a81548173ffffffffffffffffffffffffffffffffffffffff021916908373ffffffffffffffffffffffffffffffffffffffff160217905550505050505050565b60606001805480602002602001604051908101604052809291908181526020016000905b8282101561046857838290600052602060002090600402016040518060800160405290816000820180546102e590610874565b80601f016020809104026020016040519081016040528092919081815260200182805461031190610874565b801561035e5780601f106103335761010080835404028352916020019161035e565b820191906000526020600020905b81548152906001019060200180831161034157829003601f168201915b5050505050815260200160018201805461037790610874565b80601f01602080910402602001604051908101604052809291908181526020018280546103a390610874565b80156103f05780601f106103c5576101008083540402835291602001916103f0565b820191906000526020600020905b8154815290600101906020018083116103d357829003601f168201915b50505050508152602001600282015481526020016003820160009054906101000a900473ffffffffffffffffffffffffffffffffffffffff1673ffffffffffffffffffffffffffffffffffffffff1673ffffffffffffffffffffffffffffffffffffffff1681525050815260200190600101906102b2565b50505050905090565b600080fd5b600080fd5b600080fd5b600080fd5b600080fd5b60008083601f8401126104a05761049f61047b565b5b8235905067ffffffffffffffff8111156104bd576104bc610480565b5b6020830191508360018202830111156104d9576104d8610485565b5b9250929050565b600080600080604085870312156104fa576104f9610471565b5b600085013567ffffffffffffffff81111561051857610517610476565b5b6105248782880161048a565b9450945050602085013567ffffffffffffffff81111561054757610546610476565b5b6105538782880161048a565b925092505092959194509250565b600081519050919050565b600082825260208201905092915050565b6000819050602082019050919050565b600081519050919050565b600082825260208201905092915050565b60005b838110156105c75780820151818401526020810190506105ac565b60008484015250505050565b6000601f19601f8301169050919050565b60006105ef8261058d565b6105f98185610598565b93506106098185602086016105a9565b610612816105d3565b840191505092915050565b6000819050919050565b6106308161061d565b82525050565b600073ffffffffffffffffffffffffffffffffffffffff82169050919050565b600061066182610636565b9050919050565b61067181610656565b82525050565b6000608083016000830151848203600086015261069482826105e4565b915050602083015184820360208601526106ae82826105e4565b91505060408301516106c36040860182610627565b5060608301516106d66060860182610668565b508091505092915050565b60006106ed8383610677565b905092915050565b6000602082019050919050565b600061070d82610561565b610717818561056c565b9350836020820285016107298561057d565b8060005b85811015610765578484038952815161074685826106e1565b9450610751836106f5565b925060208a0199505060018101905061072d565b50829750879550505050505092915050565b600060208201905081810360008301526107918184610702565b905092915050565b600082825260208201905092915050565b7f54686520436f66666565206973206e6f74206672656521000000000000000000600082015250565b60006107e0601783610799565b91506107eb826107aa565b602082019050919050565b6000602082019050818103600083015261080f816107d3565b9050919050565b7f4e487b7100000000000000000000000000000000000000000000000000000000600052604160045260246000fd5b7f4e487b7100000000000000000000000000000000000000000000000000000000600052602260045260246000fd5b6000600282049050600182168061088c57607f821691505b60208210810361089f5761089e610845565b5b50919050565b60008190508160005260206000209050919050565b60006020601f8301049050919050565b600082821b905092915050565b6000600883026109077fffffffffffffffffffffffffffffffffffffffffffffffffffffffffffffffff826108ca565b61091186836108ca565b95508019841693508086168417925050509392505050565b6000819050919050565b600061094e6109496109448461061d565b610929565b61061d565b9050919050565b6000819050919050565b61096883610933565b61097c61097482610955565b8484546108d7565b825550505050565b600090565b610991610984565b61099c81848461095f565b505050565b5b818110156109c0576109b5600082610989565b6001810190506109a2565b5050565b601f821115610a05576109d6816108a5565b6109df846108ba565b810160208510156109ee578190505b610a026109fa856108ba565b8301826109a1565b50505b505050565b600082821c905092915050565b6000610a2860001984600802610a0a565b1980831691505092915050565b6000610a418383610a17565b9150826002028217905092915050565b610a5a8261058d565b67ffffffffffffffff811115610a7357610a72610816565b5b610a7d8254610874565b610a888282856109c4565b600060209050601f831160018114610abb5760008415610aa9578287015190505b610ab38582610a35565b865550610b1b565b601f198416610ac9866108a5565b60005b82811015610af157848901518255600182019150602085019450602081019050610acc565b86831015610b0e5784890151610b0a601f891682610a17565b8355505b6001600288020188555050505b50505050505056fea264697066735822122017778eb283de21bf013be0f24e6306cfe05b5464fbe6b9a615d21db9c9b5cbf264736f6c63430008130033",
  "linkReferences": {},
  "deployedLinkReferences": {}
}